:100000000C9469000C94B5030C94B5030C94B503DF
:100010000C94B5030C94B5030C94B5030C94B50380
:100020000C94B5030C94B5030C94B5030C94B50370
:100030000C94B5030C94B5030C94B5030C94B50360
:100040000C94B5030C94B5030C94B5030C94B50350
:100050000C94B5030C94B5030C94B5030C94B50340
:100060000C94B5030C94B5030C94B5030C94B50330
:100070000C94B5030C94B5030C94B5030C94B50320
:100080000C94B5030C94B5030C94B5030C94B50310
:100090000C94B5030C94B5030C94B5030C94B50300
:1000A0000C94B5030C94B5030C94B5030C94B503F0
:1000B0000C94B503010001048001040129000778B4
:1000C0000129012D80012D012F00079D012F0133F2
:1000D000800011241FBECFEFD8E0DEBFCDBFE4EB20
:1000E000F0E040E017C0B591A591359125910591BB
:1000F00007FD0CC095918591EF01F92FE82F059030
:100100000D92A217B307D9F7FE0104C01D92A217E2
:10011000B307E1F7E13DF40731F70E94BF010C940A
:060120005203F894FFCF2A
:100126004F925F926F927F928F929F92AF92BF9201
:10013600EF92FF920F931F934B015C0129013A0145
:10014600C801B7019F772AE939E949E15FE30E94CF
:10015600A4038823DCF5C501B4019F7723E333E3C9
:1001660043E35FE30E94A90318165CF1C301B201E1
:100176009F7723E333E343E35FE30E94A903181663
:1001860004F124C08F5F8093320180913101811187
:1001960026C080913201853010F184E291E00E9400
:1001A600790381E0809331016B9A739A2FEF89E688
:1001B60098E1215080409040E1F700C0000073981C
:1001C6000EC0809132018F3FE9F605C010923201D0
:1001D6001092310104C0809131018823F1F21F9100
:1001E6000F91FF90EF90BF90AF909F908F907F9070
:0801F6006F905F904F90089597
:1001FE000FC00E94890338F00E94900320F09523CF
:10020E0011F00C949E030C94B20311240C949803D9
:10021E000E94A50270F3959FC1F3950F50E0551FF4
:10022E00629FF001729FBB27F00DB11D639FAA273D
:10023E00F00DB11DAA1F649F6627B00DA11D661F8C
:10024E00829F2227B00DA11D621F739FB00DA11DAD
:10025E00621F839FA00D611D221F749F3327A00D67
:10026E00611D231F849F600D211D822F762F6A2F03
:10027E0011249F5750409AF0F1F088234AF0EE0F68
:10028E00FF1FBB1F661F771F881F91505040A9F795
:10029E009E3F510580F00C949E030C9498035F3F93
:1002AE00E4F3983ED4F3869577956795B795F795D1
:1002BE00E7959F5FC1F7FE2B880F911D9695879549
:0402CE0097F90895FF
:1002D2005F926F927F928F929F92AF92BF92CF92D4
:1002E200DF92EF92FF920F931F93CF93DF935C0104
:1002F2006B017A010E94670386ED0E94470388E240
:100302000E9447030E94670387ED0E9447030E94F1
:100312002F03682E0E942F03582E0E942F03882E2F
:100322000E942F03782E0E942F03982E0E943B03D7
:1003320024E92093DC00152D00E00629F501118344
:100342000083D72DF0E0CF2FC829F601D183C083D7
:10035200982F88278929F70191838083DF91CF9194
:100362001F910F91FF90EF90DF90CF90BF90AF90D1
:0C0372009F908F907F906F905F90089597
:10037E00CF93DF9300D000D000D0CDB7DEB70E9470
:10038E00C7020E948203AE014B5F5F4FBE016D5FDD
:10039E007F4FCE0101960E9469016D817E81072EED
:1003AE00000C880B990B0E94140220E43AED4FE7E3
:1003BE0058E30E94AE036B017C016B817C81072E9A
:1003CE00000C880B990B0E94140220E43AED4FE7C3
:1003DE0058E30E94AE034B015C0169817A81072EBE
:1003EE00000C880B990B0E94140220E43AED4FE7A3
:1003FE0058E30E94AE0387017601A50194010E9485
:10040E0093002FEF83EC99E0215080409040E1F76C
:06041E0000C00000B8CF91
:10042400E89409C097FB3EF490958095709561958A
:100434007F4F8F4F9F4F9923A9F0F92F96E9BB2740
:100444009395F695879577956795B795F111F8CFBC
:10045400FAF4BB0F11F460FF1BC06F5F7F4F8F4F27
:100464009F4F16C0882311F096E911C0772321F01D
:100474009EE8872F762F05C0662371F096E8862FB5
:1004840070E060E02AF09A95660F771F881FDAF70C
:0A049400880F9695879597F9089553
:10049E000F931F93CF93DF938C010F5F1F4FFC01C0
:1004AE0080816115710519F48FEF9FEF1EC0FB015E
:1004BE0024853585232BC1F3EB01EC85FD85BE012B
:1004CE00882339F00995892B79F7F80181918F01ED
:1004DE00F4CF8AE0099521E030E0892B11F420E079
:1004EE0030E088279927821B930BDF91CF911F91C4
:0404FE000F910895BD
:10050200990F0008550FAA0BE0E8FEEF1616170622
:10051200E807F907C0F012161306E407F50798F08A
:10052200621B730B840B950B39F40A2661F0232BA3
:10053200242B252B21F408950A2609F4A140A6951F
:080542008FEF811D811D08955A
:10054A0057FD9058440F551F59F05F3F71F047957A
:10055A00880F97FB991F61F09F3F79F0879508955F
:10056A00121613061406551FF2CF4695F1DF08C07E
:10057A00161617061806991FF1CF8695710561059B
:04058A000894089534
:10058E001092C50087E68093C40088E18093C10075
:10059E00E2ECF0E086E080838081886080838DE5E8
:1005AE0093E00E94140380E793E00E9405030895F0
:1005BE00CF93DF93D82FC62F0E94670386ED0E943C
:1005CE0047038D2F0E9447038C2F0E94470384E917
:0A05DE008093DC00DF91CF910895B7
:1005E800092E0394000C11F4882352F0BB0F40F439
:1005F800BF2B11F460FF04C06F5F7F4F8F4F9F4F79
:02060800089553
:10060A00E4E0F1E0F0930101E0930001F0932A01A4
:0E061A00E09329019787868715861486089538
:10062800E4E1F1E0F0930301E0930201F09330017B
:0E063800E0932F011786168695878487089514
:1006460088E48093D800E9EDF0E080818C7F808398
:0806560084E08093DC000895AC
:10065E0084EC8093DC00ECEDF0E080818823ECF7F5
:08066E008091DB0090E008958B
:1006760084E88093DC00ECEDF0E080818823ECF7E1
:080686008091DB0090E0089573
:10068E008093DB0084E88093DC00ECEDF0E0808169
:06069E008823ECF708952B
:1006A400EC010E94BA030E94B903CE010E94BB036D
:0606B400CE010E94B70315
:1006BA00E0ECF0E0908195FFFDCF8093C60080E0EA
:0406CA0090E008951F
:1006CE0084EA8093DC00ECEDF0E080818823ECF787
:0206DE0008957D
:1006E000E0ECF0E080818823ECF78091C60090E098
:0206F00008956B
:1006F200E0912D01F0912E01608171810E944F02E3
:02070200089558
:0E0704000E94230360E480E10E94DF0208955A
:0E07120000240A941616170618060906089504
:0E07200000240A941216130614060506089506
:0E072E00E894BB2766277727CB0197F908953B
:0C073C0097F99F6780E870E060E0089586
:0A0748000E94810208F481E0089588
:0A0752000E94810208F48FEF089561
:08075C000E94FF000C94F4025E
:060764009FEF80EC0895F8
:04076A000C940000EB
:04076E000E94910054
:020772000895E8
:020774000895E6
:020776000895E4
:1007780025002D010000000000000000000000001E
:10078800030000000000000000000000000000005E
:0507980046414C4C003D
:02079D002F012A
:00000001FF
